{
  "contractName": "vc4med",
  "abi": [
    {
      "inputs": [],
      "stateMutability": "nonpayable",
      "type": "constructor"
    },
    {
      "anonymous": false,
      "inputs": [
        {
          "indexed": false,
          "internalType": "string",
          "name": "orderId",
          "type": "string"
        },
        {
          "indexed": false,
          "internalType": "uint256",
          "name": "value",
          "type": "uint256"
        },
        {
          "indexed": false,
          "internalType": "address",
          "name": "to",
          "type": "address"
        }
      ],
      "name": "orderHasBeenPayed",
      "type": "event"
    },
    {
      "inputs": [],
      "name": "owner",
      "outputs": [
        {
          "internalType": "address",
          "name": "",
          "type": "address"
        }
      ],
      "stateMutability": "view",
      "type": "function",
      "constant": true
    },
    {
      "inputs": [
        {
          "internalType": "string",
          "name": "didkey",
          "type": "string"
        }
      ],
      "name": "isDoctor",
      "outputs": [
        {
          "internalType": "bool",
          "name": "",
          "type": "bool"
        }
      ],
      "stateMutability": "view",
      "type": "function",
      "constant": true
    },
    {
      "inputs": [
        {
          "internalType": "string",
          "name": "didkey",
          "type": "string"
        }
      ],
      "name": "isPharma",
      "outputs": [
        {
          "internalType": "bool",
          "name": "",
          "type": "bool"
        }
      ],
      "stateMutability": "view",
      "type": "function",
      "constant": true
    },
    {
      "inputs": [
        {
          "internalType": "address",
          "name": "a",
          "type": "address"
        }
      ],
      "name": "isPharma",
      "outputs": [
        {
          "internalType": "bool",
          "name": "",
          "type": "bool"
        }
      ],
      "stateMutability": "view",
      "type": "function",
      "constant": true
    },
    {
      "inputs": [
        {
          "internalType": "string",
          "name": "didkey",
          "type": "string"
        }
      ],
      "name": "addNewDoctor",
      "outputs": [],
      "stateMutability": "nonpayable",
      "type": "function"
    },
    {
      "inputs": [
        {
          "internalType": "string",
          "name": "didkey",
          "type": "string"
        },
        {
          "internalType": "address",
          "name": "a",
          "type": "address"
        }
      ],
      "name": "addNewPharma",
      "outputs": [],
      "stateMutability": "nonpayable",
      "type": "function"
    },
    {
      "inputs": [
        {
          "internalType": "string",
          "name": "orderId",
          "type": "string"
        }
      ],
      "name": "getOrder",
      "outputs": [
        {
          "internalType": "bool",
          "name": "",
          "type": "bool"
        }
      ],
      "stateMutability": "view",
      "type": "function",
      "constant": true
    },
    {
      "inputs": [
        {
          "internalType": "string",
          "name": "prId",
          "type": "string"
        }
      ],
      "name": "getAlreadyRedeemedQuantity",
      "outputs": [
        {
          "internalType": "uint256",
          "name": "",
          "type": "uint256"
        }
      ],
      "stateMutability": "view",
      "type": "function",
      "constant": true
    },
    {
      "inputs": [
        {
          "internalType": "string",
          "name": "prId",
          "type": "string"
        },
        {
          "internalType": "uint256",
          "name": "toRedeem",
          "type": "uint256"
        },
        {
          "internalType": "uint256",
          "name": "maxQuantity",
          "type": "uint256"
        }
      ],
      "name": "isPrescriptionValid",
      "outputs": [
        {
          "internalType": "bool",
          "name": "",
          "type": "bool"
        }
      ],
      "stateMutability": "view",
      "type": "function",
      "constant": true
    },
    {
      "inputs": [
        {
          "components": [
            {
              "components": [
                {
                  "internalType": "string",
                  "name": "prId",
                  "type": "string"
                },
                {
                  "internalType": "uint256",
                  "name": "quantity",
                  "type": "uint256"
                },
                {
                  "internalType": "uint256",
                  "name": "maxQuantity",
                  "type": "uint256"
                },
                {
                  "internalType": "uint256",
                  "name": "price",
                  "type": "uint256"
                }
              ],
              "internalType": "struct vc4med.Prescription[]",
              "name": "prescriptions",
              "type": "tuple[]"
            },
            {
              "internalType": "string",
              "name": "orderId",
              "type": "string"
            },
            {
              "internalType": "uint256",
              "name": "totalPrice",
              "type": "uint256"
            },
            {
              "internalType": "address",
              "name": "pharmacy",
              "type": "address"
            }
          ],
          "internalType": "struct vc4med.Order",
          "name": "order",
          "type": "tuple"
        },
        {
          "internalType": "bytes",
          "name": "sig",
          "type": "bytes"
        }
      ],
      "name": "payOrder",
      "outputs": [],
      "stateMutability": "payable",
      "type": "function",
      "payable": true
    }
  ],
  "bytecode": "0x60806040523480156200001157600080fd5b5033600660006101000a81548173ffffffffffffffffffffffffffffffffffffffff021916908373ffffffffffffffffffffffffffffffffffffffff160217905550600160036040516200006590620002e6565b908152602001604051809103902060006101000a81548160ff021916908315150217905550600160046040516200009c9062000373565b908152602001604051809103902060006101000a81548160ff021916908315150217905550600160056000732e3d6752536566ed51c805a86070ba596052fcb673ffffffffffffffffffffffffffffffffffffffff1673ffffffffffffffffffffffffffffffffffffffff16815260200190815260200160002060006101000a81548160ff021916908315150217905550620001e160405180608001604052806040518060400160405280600681526020017f7663346d6564000000000000000000000000000000000000000000000000000081525081526020016040518060400160405280600181526020017f310000000000000000000000000000000000000000000000000000000000000081525081526020016201388181526020013073ffffffffffffffffffffffffffffffffffffffff16815250620001ed60201b60201c565b60008190555062000462565b60007f8b73c3c69bb8fe3d512ecc4cf759cc79239f7b179b0ffacaa9a75d522b39400f826000015180519060200120836020015180519060200120846040015185606001516040516020016200024895949392919062000405565b604051602081830303815290604052805190602001209050919050565b600081905092915050565b7f6469643a6b65793a7a364d6b6557723850565673686943313464474c55514e7260008201527f4531593241637666656d48485131784b6976735642364a580000000000000000602082015250565b6000620002ce60388362000265565b9150620002db8262000270565b603882019050919050565b6000620002f382620002bf565b9150819050919050565b7f6469643a6b65793a7a364d6b746141664c595a46336b6861485a755743686f3160008201527f76724a6b44505878316e6b48745053584653776b366735690000000000000000602082015250565b60006200035b60388362000265565b91506200036882620002fd565b603882019050919050565b600062000380826200034c565b9150819050919050565b6000819050919050565b6200039f816200038a565b82525050565b6000819050919050565b620003ba81620003a5565b82525050565b600073ffffffffffffffffffffffffffffffffffffffff82169050919050565b6000620003ed82620003c0565b9050919050565b620003ff81620003e0565b82525050565b600060a0820190506200041c600083018862000394565b6200042b602083018762000394565b6200043a604083018662000394565b620004496060830185620003af565b620004586080830184620003f4565b9695505050505050565b611cee80620004726000396000f3fe6080604052600436106100915760003560e01c80639394af9b116100595780639394af9b1461019457806395122c52146101d1578063c6a416141461020e578063d1e4fd0f14610237578063ff65f4731461027457610091565b80630e32a798146100965780635b4dad8a146100b2578063712ca0f8146100ef5780637dd22a151461012c5780638da5cb5b14610169575b600080fd5b6100b060048036038101906100ab91906111c4565b61029d565b005b3480156100be57600080fd5b506100d960048036038101906100d4919061123c565b610731565b6040516100e691906112c6565b60405180910390f35b3480156100fb57600080fd5b50610116600480360381019061011191906112e1565b610779565b60405161012391906112c6565b60405180910390f35b34801561013857600080fd5b50610153600480360381019061014e91906112e1565b6107ae565b60405161016091906112c6565b60405180910390f35b34801561017557600080fd5b5061017e6107e3565b60405161018b9190611339565b60405180910390f35b3480156101a057600080fd5b506101bb60048036038101906101b691906112e1565b610809565b6040516101c89190611363565b60405180910390f35b3480156101dd57600080fd5b506101f860048036038101906101f391906112e1565b610831565b60405161020591906112c6565b60405180910390f35b34801561021a57600080fd5b506102356004803603810190610230919061137e565b610866565b005b34801561024357600080fd5b5061025e600480360381019061025991906113da565b610989565b60405161026b91906112c6565b60405180910390f35b34801561028057600080fd5b5061029b600480360381019061029691906112e1565b6109df565b005b60418151146102e1576040517f08c379a00000000000000000000000000000000000000000000000000000000081526004016102d890611464565b60405180910390fd5b670de0b6b3a764000082604001516102f991906114b3565b34101561033b576040517f08c379a000000000000000000000000000000000000000000000000000000000815260040161033290611567565b60405180910390fd5b6002826020015160405161034f91906115f8565b908152602001604051809103902060009054906101000a900460ff16156103ab576040517f08c379a00000000000000000000000000000000000000000000000000000000081526004016103a29061165b565b60405180910390fd5b6103b88260600151610989565b6103f7576040517f08c379a00000000000000000000000000000000000000000000000000000000081526004016103ee906116c7565b60405180910390fd5b60005b8260000151518110156105435761047883600001518281518110610421576104206116e7565b5b60200260200101516000015184600001518381518110610444576104436116e7565b5b60200260200101516020015185600001518481518110610467576104666116e7565b5b602002602001015160400151610731565b6104b7576040517f08c379a00000000000000000000000000000000000000000000000000000000081526004016104ae90611762565b60405180910390fd5b826000015181815181106104ce576104cd6116e7565b5b6020026020010151602001516001846000015183815181106104f3576104f26116e7565b5b60200260200101516000015160405161050c91906115f8565b908152602001604051809103902060008282546105299190611782565b92505081905550808061053b906117b6565b9150506103fa565b5060008060006020840151915060408401519050606084015160001a9250600061056f86858585610aa9565b9050856060015173ffffffffffffffffffffffffffffffffffffffff168173ffffffffffffffffffffffffffffffffffffffff16146105e3576040517f08c379a00000000000000000000000000000000000000000000000000000000081526004016105da90611870565b60405180910390fd5b6000866060015173ffffffffffffffffffffffffffffffffffffffff16670de0b6b3a7640000886040015161061891906114b3565b604051610624906118c1565b60006040518083038185875af1925050503d8060008114610661576040519150601f19603f3d011682016040523d82523d6000602084013e610666565b606091505b50509050806106aa576040517f08c379a00000000000000000000000000000000000000000000000000000000081526004016106a190611922565b60405180910390fd5b6001600288602001516040516106c091906115f8565b908152602001604051809103902060006101000a81548160ff0219169083151502179055507ff9e915b046ccc1139d4a174976ddcb4c54f129023a6a1049c3a1fb59d5cb4a2087602001513489606001516040516107209392919061197b565b60405180910390a150505050505050565b6000818360018660405161074591906115f8565b90815260200160405180910390205461075e9190611782565b111561076d5760009050610772565b600190505b9392505050565b600060028260405161078b91906115f8565b908152602001604051809103902060009054906101000a900460ff169050919050565b60006004826040516107c091906115f8565b908152602001604051809103902060009054906101000a900460ff169050919050565b600660009054906101000a900473ffffffffffffffffffffffffffffffffffffffff1681565b600060018260405161081b91906115f8565b9081526020016040518091039020549050919050565b600060038260405161084391906115f8565b908152602001604051809103902060009054906101000a900460ff169050919050565b600660009054906101000a900473ffffffffffffffffffffffffffffffffffffffff1673ffffffffffffffffffffffffffffffffffffffff163373ffffffffffffffffffffffffffffffffffffffff16146108f6576040517f08c379a00000000000000000000000000000000000000000000000000000000081526004016108ed90611a05565b60405180910390fd5b600160048360405161090891906115f8565b908152602001604051809103902060006101000a81548160ff0219169083151502179055506001600560008373ffffffffffffffffffffffffffffffffffffffff1673ffffffffffffffffffffffffffffffffffffffff16815260200190815260200160002060006101000a81548160ff0219169083151502179055505050565b6000600560008373ffffffffffffffffffffffffffffffffffffffff1673ffffffffffffffffffffffffffffffffffffffff16815260200190815260200160002060009054906101000a900460ff169050919050565b600660009054906101000a900473ffffffffffffffffffffffffffffffffffffffff1673ffffffffffffffffffffffffffffffffffffffff163373ffffffffffffffffffffffffffffffffffffffff1614610a6f576040517f08c379a0000000000000000000000000000000000000000000000000000000008152600401610a6690611a05565b60405180910390fd5b6001600382604051610a8191906115f8565b908152602001604051809103902060006101000a81548160ff02191690831515021790555050565b600080600054610ab887610b3b565b604051602001610ac9929190611a9c565b60405160208183030381529060405280519060200120905060018186868660405160008152602001604052604051610b049493929190611afe565b6020604051602081039080840390855afa158015610b26573d6000803e3d6000fd5b50505060206040510351915050949350505050565b60007f1de5428f39e5ee572eaa99cd94a1983011768e731bdb013ceb43e61283c02d24610b6b8360000151610bb2565b83602001518051906020012084604001518560600151604051602001610b95959493929190611b43565b604051602081830303815290604052805190602001209050919050565b600080825167ffffffffffffffff811115610bd057610bcf610d2b565b5b604051908082528060200260200182016040528015610bfe5781602001602082028036833780820191505090505b50905060005b8151811015610c6257610c30848281518110610c2357610c226116e7565b5b6020026020010151610c92565b828281518110610c4357610c426116e7565b5b6020026020010181815250508080610c5a906117b6565b915050610c04565b5080604051602001610c749190611c4e565b60405160208183030381529060405280519060200120915050919050565b60007f8694b051b71887652a1ded9713c40b6a361bd13e65833075c0b919188e28f69f826000015180519060200120836020015184604001518560600151604051602001610ce4959493929190611c65565b604051602081830303815290604052805190602001209050919050565b6000604051905090565b600080fd5b600080fd5b600080fd5b6000601f19601f8301169050919050565b7f4e487b7100000000000000000000000000000000000000000000000000000000600052604160045260246000fd5b610d6382610d1a565b810181811067ffffffffffffffff82111715610d8257610d81610d2b565b5b80604052505050565b6000610d95610d01565b9050610da18282610d5a565b919050565b600080fd5b600080fd5b600067ffffffffffffffff821115610dcb57610dca610d2b565b5b602082029050602081019050919050565b600080fd5b600080fd5b600067ffffffffffffffff821115610e0157610e00610d2b565b5b610e0a82610d1a565b9050602081019050919050565b82818337600083830152505050565b6000610e39610e3484610de6565b610d8b565b905082815260208101848484011115610e5557610e54610de1565b5b610e60848285610e17565b509392505050565b600082601f830112610e7d57610e7c610dab565b5b8135610e8d848260208601610e26565b91505092915050565b6000819050919050565b610ea981610e96565b8114610eb457600080fd5b50565b600081359050610ec681610ea0565b92915050565b600060808284031215610ee257610ee1610d15565b5b610eec6080610d8b565b9050600082013567ffffffffffffffff811115610f0c57610f0b610da6565b5b610f1884828501610e68565b6000830152506020610f2c84828501610eb7565b6020830152506040610f4084828501610eb7565b6040830152506060610f5484828501610eb7565b60608301525092915050565b6000610f73610f6e84610db0565b610d8b565b90508083825260208201905060208402830185811115610f9657610f95610ddc565b5b835b81811015610fdd57803567ffffffffffffffff811115610fbb57610fba610dab565b5b808601610fc88982610ecc565b85526020850194505050602081019050610f98565b5050509392505050565b600082601f830112610ffc57610ffb610dab565b5b813561100c848260208601610f60565b91505092915050565b600073ffffffffffffffffffffffffffffffffffffffff82169050919050565b600061104082611015565b9050919050565b61105081611035565b811461105b57600080fd5b50565b60008135905061106d81611047565b92915050565b60006080828403121561108957611088610d15565b5b6110936080610d8b565b9050600082013567ffffffffffffffff8111156110b3576110b2610da6565b5b6110bf84828501610fe7565b600083015250602082013567ffffffffffffffff8111156110e3576110e2610da6565b5b6110ef84828501610e68565b602083015250604061110384828501610eb7565b60408301525060606111178482850161105e565b60608301525092915050565b600067ffffffffffffffff82111561113e5761113d610d2b565b5b61114782610d1a565b9050602081019050919050565b600061116761116284611123565b610d8b565b90508281526020810184848401111561118357611182610de1565b5b61118e848285610e17565b509392505050565b600082601f8301126111ab576111aa610dab565b5b81356111bb848260208601611154565b91505092915050565b600080604083850312156111db576111da610d0b565b5b600083013567ffffffffffffffff8111156111f9576111f8610d10565b5b61120585828601611073565b925050602083013567ffffffffffffffff81111561122657611225610d10565b5b61123285828601611196565b9150509250929050565b60008060006060848603121561125557611254610d0b565b5b600084013567ffffffffffffffff81111561127357611272610d10565b5b61127f86828701610e68565b935050602061129086828701610eb7565b92505060406112a186828701610eb7565b9150509250925092565b60008115159050919050565b6112c0816112ab565b82525050565b60006020820190506112db60008301846112b7565b92915050565b6000602082840312156112f7576112f6610d0b565b5b600082013567ffffffffffffffff81111561131557611314610d10565b5b61132184828501610e68565b91505092915050565b61133381611035565b82525050565b600060208201905061134e600083018461132a565b92915050565b61135d81610e96565b82525050565b60006020820190506113786000830184611354565b92915050565b6000806040838503121561139557611394610d0b565b5b600083013567ffffffffffffffff8111156113b3576113b2610d10565b5b6113bf85828601610e68565b92505060206113d08582860161105e565b9150509250929050565b6000602082840312156113f0576113ef610d0b565b5b60006113fe8482850161105e565b91505092915050565b600082825260208201905092915050565b7f696e76616c6964207369676e6174757265206c656e6774680000000000000000600082015250565b600061144e601883611407565b915061145982611418565b602082019050919050565b6000602082019050818103600083015261147d81611441565b9050919050565b7f4e487b7100000000000000000000000000000000000000000000000000000000600052601160045260246000fd5b60006114be82610e96565b91506114c983610e96565b92508282026114d781610e96565b915082820484148315176114ee576114ed611484565b5b5092915050565b7f416d6f756e74206f66204d41544943206973206e6f7420656e6f75676820746f60008201527f2070617920746865206f72646572000000000000000000000000000000000000602082015250565b6000611551602e83611407565b915061155c826114f5565b604082019050919050565b6000602082019050818103600083015261158081611544565b9050919050565b600081519050919050565b600081905092915050565b60005b838110156115bb5780820151818401526020810190506115a0565b60008484015250505050565b60006115d282611587565b6115dc8185611592565b93506115ec81856020860161159d565b80840191505092915050565b600061160482846115c7565b915081905092915050565b7f4f726465722068617320616c7265616479206265656e2064656c697665726564600082015250565b6000611645602083611407565b91506116508261160f565b602082019050919050565b6000602082019050818103600083015261167481611638565b9050919050565b7f5369676e6572206973206e6f7420612076616c696420506861726d6163790000600082015250565b60006116b1601e83611407565b91506116bc8261167b565b602082019050919050565b600060208201905081810360008301526116e0816116a4565b9050919050565b7f4e487b7100000000000000000000000000000000000000000000000000000000600052603260045260246000fd5b7f4d6178207175616e746974792065786365656465640000000000000000000000600082015250565b600061174c601583611407565b915061175782611716565b602082019050919050565b6000602082019050818103600083015261177b8161173f565b9050919050565b600061178d82610e96565b915061179883610e96565b92508282019050808211156117b0576117af611484565b5b92915050565b60006117c182610e96565b91507fffffffffffffffffffffffffffffffffffffffffffffffffffffffffffffffff82036117f3576117f2611484565b5b600182019050919050565b7f5369676e657220616e6420506861726d61637920646f6573206e6f7420636f7260008201527f726573706f6e6400000000000000000000000000000000000000000000000000602082015250565b600061185a602783611407565b9150611865826117fe565b604082019050919050565b600060208201905081810360008301526118898161184d565b9050919050565b600081905092915050565b50565b60006118ab600083611890565b91506118b68261189b565b600082019050919050565b60006118cc8261189e565b9150819050919050565b7f4661696c656420746f2070617900000000000000000000000000000000000000600082015250565b600061190c600d83611407565b9150611917826118d6565b602082019050919050565b6000602082019050818103600083015261193b816118ff565b9050919050565b600061194d82611587565b6119578185611407565b935061196781856020860161159d565b61197081610d1a565b840191505092915050565b600060608201905081810360008301526119958186611942565b90506119a46020830185611354565b6119b1604083018461132a565b949350505050565b7f4e6f74206f776e65720000000000000000000000000000000000000000000000600082015250565b60006119ef600983611407565b91506119fa826119b9565b602082019050919050565b60006020820190508181036000830152611a1e816119e2565b9050919050565b7f1901000000000000000000000000000000000000000000000000000000000000600082015250565b6000611a5b600283611592565b9150611a6682611a25565b600282019050919050565b6000819050919050565b6000819050919050565b611a96611a9182611a71565b611a7b565b82525050565b6000611aa782611a4e565b9150611ab38285611a85565b602082019150611ac38284611a85565b6020820191508190509392505050565b611adc81611a71565b82525050565b600060ff82169050919050565b611af881611ae2565b82525050565b6000608082019050611b136000830187611ad3565b611b206020830186611aef565b611b2d6040830185611ad3565b611b3a6060830184611ad3565b95945050505050565b600060a082019050611b586000830188611ad3565b611b656020830187611ad3565b611b726040830186611ad3565b611b7f6060830185611354565b611b8c608083018461132a565b9695505050505050565b600081519050919050565b600081905092915050565b6000819050602082019050919050565b611bc581611a71565b82525050565b6000611bd78383611bbc565b60208301905092915050565b6000602082019050919050565b6000611bfb82611b96565b611c058185611ba1565b9350611c1083611bac565b8060005b83811015611c41578151611c288882611bcb565b9750611c3383611be3565b925050600181019050611c14565b5085935050505092915050565b6000611c5a8284611bf0565b915081905092915050565b600060a082019050611c7a6000830188611ad3565b611c876020830187611ad3565b611c946040830186611354565b611ca16060830185611354565b611cae6080830184611354565b969550505050505056fea264697066735822122027844d1792d175fe86e936921318a01563b560e2f0d5ec3c77688cd6afb333bb64736f6c63430008130033",
  "immutableReferences": {},
  "source": "// SPDX-License-Identifier: MIT\r\npragma solidity 0.8.19;\r\n\r\ncontract vc4med {\r\n\r\n  /* EIP 712 */\r\n  struct EIP712Domain {\r\n    string  name;\r\n    string  version;\r\n    uint256 chainId;\r\n    address verifyingContract;\r\n  }\r\n\r\n  struct Prescription {\r\n    string prId;\r\n    uint256 quantity;\r\n    uint256 maxQuantity;\r\n    uint256 price;\r\n  }\r\n\r\n  struct Order {\r\n    Prescription[] prescriptions;\r\n    string orderId;\r\n    uint256 totalPrice;\r\n    address pharmacy;\r\n  }\r\n\r\n  bytes32 constant EIP712DOMAIN_TYPEHASH = keccak256(\r\n    \"EIP712Domain(string name,string version,uint256 chainId,address verifyingContract)\"\r\n  );\r\n\r\n  bytes32 constant PRESCRIPTION_TYPEHASH = keccak256(\r\n    \"Prescription(string prId,uint256 quantity,uint256 maxQuantity,uint256 price)\"\r\n  );\r\n\r\n  bytes32 constant ORDER_TYPEHASH = keccak256(\r\n    \"Order(Prescription[] prescriptions,string orderId,uint256 totalPrice,address pharmacy)Prescription(string prId,uint256 quantity,uint256 maxQuantity,uint256 price)\"\r\n  );\r\n\r\n  bytes32 DOMAIN_SEPARATOR;\r\n\r\n  /* GLOBAL VARS */\r\n  mapping(string => uint) alreadyRedeemedQuantity;\r\n  mapping(string => bool) orders;\r\n  mapping(string => bool) doctorsKey;\r\n  mapping(string => bool) pharmasKey;\r\n  mapping(address=> bool) pharmasAddr;\r\n\r\n  address public owner;\r\n\r\n  event orderHasBeenPayed(string orderId, uint256 value, address to);\r\n\r\n  constructor(){\r\n    // Set the transaction sender as the owner of the contract.\r\n    owner = msg.sender;\r\n\r\n    // Values for demo\r\n    doctorsKey['did:key:z6MkeWr8PVVshiC14dGLUQNrE1Y2AcvfemHHQ1xKivsVB6JX']= true;\r\n    pharmasKey['did:key:z6MktaAfLYZF3khaHZuWCho1vrJkDPXx1nkHtPSXFSwk6g5i']=true;\r\n    pharmasAddr[0x2e3D6752536566ED51c805A86070BA596052FCb6]=true;\r\n\r\n    //EIP 712\r\n    DOMAIN_SEPARATOR = hash(EIP712Domain({\r\n      name: \"vc4med\",\r\n      version: '1',\r\n      chainId: 80001,\r\n      verifyingContract: address(this)\r\n    }));\r\n  }\r\n\r\n  // Modifier to check that the caller is the owner of the contract.\r\n  modifier onlyOwner() {\r\n    require(msg.sender == owner, \"Not owner\");\r\n    // execute the rest of the code.\r\n    _;\r\n  }\r\n\r\n  /* CRUD operations */\r\n  function isDoctor(string memory didkey) public view returns (bool) {\r\n    return doctorsKey[didkey];\r\n  }\r\n\r\n  function isPharma(string memory didkey) public view returns (bool) {\r\n    return pharmasKey[didkey];\r\n  }\r\n\r\n  function isPharma(address a) public view returns (bool) {\r\n    return pharmasAddr[a];\r\n  }\r\n\r\n  function addNewDoctor(string memory didkey) public onlyOwner(){\r\n    doctorsKey[didkey] = true;\r\n  }\r\n\r\n  function addNewPharma(string memory didkey, address a) public onlyOwner(){\r\n    pharmasKey[didkey] = true;\r\n    pharmasAddr[a] = true;\r\n  }\r\n\r\n  function getOrder(string memory orderId) public view returns (bool){\r\n    return orders[orderId];\r\n  }\r\n\r\n  function getAlreadyRedeemedQuantity(string memory prId) public view returns (uint256){\r\n    return alreadyRedeemedQuantity[prId];\r\n  }\r\n\r\n  function isPrescriptionValid(string memory prId, uint256 toRedeem, uint256 maxQuantity) public view returns (bool){\r\n    if (alreadyRedeemedQuantity[prId] + toRedeem > maxQuantity) return false; //quantity exceeded\r\n    return true;\r\n  }\r\n\r\n  /* Hash functions for EIP 712 */\r\n  function hash(EIP712Domain memory eip712Domain) internal pure returns (bytes32) {\r\n    return keccak256(abi.encode(\r\n      EIP712DOMAIN_TYPEHASH,\r\n      keccak256(bytes(eip712Domain.name)),\r\n      keccak256(bytes(eip712Domain.version)),\r\n      eip712Domain.chainId,\r\n      eip712Domain.verifyingContract\r\n    ));\r\n  }\r\n\r\n  function hash(Prescription memory prescription) internal pure returns (bytes32) {\r\n    return keccak256(abi.encode(\r\n      PRESCRIPTION_TYPEHASH,\r\n      keccak256(bytes(prescription.prId)),\r\n      prescription.quantity,\r\n      prescription.maxQuantity,\r\n      prescription.price\r\n    ));\r\n  }\r\n\r\n  function hash(Prescription[] memory ps) internal pure returns (bytes32) {\r\n    bytes32[] memory keccakItems = new bytes32[](ps.length);\r\n      for(uint i=0; i<keccakItems.length;i++){\r\n        keccakItems[i] = hash(ps[i]);\r\n      }\r\n    return keccak256(abi.encodePacked(keccakItems));\r\n  }\r\n\r\n  function hash(Order memory order) internal pure returns (bytes32) {\r\n    return keccak256(abi.encode(\r\n      ORDER_TYPEHASH,\r\n      hash(order.prescriptions),\r\n      keccak256(bytes(order.orderId)),\r\n      order.totalPrice,\r\n      order.pharmacy\r\n    ));\r\n  }\r\n\r\n  function verify(Order memory order, uint8 v, bytes32 r, bytes32 s) internal view returns (address) {\r\n    // Note: we need to use `encodePacked` here instead of `encode`.\r\n    bytes32 digest = keccak256(abi.encodePacked(\r\n      \"\\x19\\x01\",\r\n      DOMAIN_SEPARATOR,\r\n      hash(order)\r\n    ));\r\n    return ecrecover(digest, v, r, s);\r\n  }\r\n    \r\n  // Order: JSON file with all the info to complete the payment\r\n  // Sig : hash signed by the pharmacy to check the order has not been tampered\r\n  function payOrder(Order memory order, bytes memory sig) public payable {\r\n    require(sig.length == 65, \"invalid signature length\");\r\n    require(msg.value >= order.totalPrice * 1e18, 'Amount of MATIC is not enough to pay the order');\r\n    require(!(orders[order.orderId]), 'Order has already been delivered');\r\n    require(isPharma(order.pharmacy), 'Signer is not a valid Pharmacy');\r\n\r\n    for(uint i=0; i<order.prescriptions.length; i++){\r\n      require(isPrescriptionValid(\r\n        order.prescriptions[i].prId,\r\n        order.prescriptions[i].quantity,\r\n        order.prescriptions[i].maxQuantity),\r\n       'Max quantity exceeded'\r\n      );    \r\n    alreadyRedeemedQuantity[order.prescriptions[i].prId] += order.prescriptions[i].quantity;\r\n    }\r\n\r\n   uint8 v; bytes32 r; bytes32 s;\r\n   assembly {\r\n    /*\r\n    First 32 bytes stores the length of the signature\r\n    add(sig, 32) = pointer of sig + 32\r\n    effectively, skips first 32 bytes of signature\r\n    mload(p) loads next 32 bytes starting at the memory address p into memory\r\n    */\r\n    // first 32 bytes, after the length prefix\r\n    r := mload(add(sig, 32))\r\n    // second 32 bytes\r\n    s := mload(add(sig, 64))\r\n    // final byte (first byte of the next 32 bytes)\r\n    v := byte(0, mload(add(sig, 96)))\r\n    }\r\n\r\n    address signer = verify(order, v, r, s);\r\n    require(signer == order.pharmacy, 'Signer and Pharmacy does not correspond');\r\n    (bool sent, ) = (payable (order.pharmacy)).call{value: order.totalPrice * 1e18}(\"\");\r\n    require(sent, \"Failed to pay\");\r\n\r\n    orders[order.orderId] = true;\r\n\r\n    emit orderHasBeenPayed(order.orderId, msg.value, order.pharmacy);\r\n\r\n  }\r\n}\r\n",
  "sourcePath": "C:\\Users\\Stroppa\\vc-4-med\\polygon\\contracts\\polygon\\vc4med.sol",
  "compiler": {
    "name": "solc",
    "version": "0.8.19+commit.7dd6d404.Emscripten.clang"
  },
  "schemaVersion": "3.4.9",
  "updatedAt": "2023-04-18T21:34:47.712Z",
  "networkType": "ethereum",
  "devdoc": {
    "kind": "dev",
    "methods": {},
    "version": 1
  },
  "userdoc": {
    "kind": "user",
    "methods": {},
    "version": 1
  }
}