{
  "contractName": "vc4med",
  "abi": [
    {
      "inputs": [],
      "stateMutability": "nonpayable",
      "type": "constructor"
    },
    {
      "inputs": [],
      "name": "owner",
      "outputs": [
        {
          "internalType": "address",
          "name": "",
          "type": "address"
        }
      ],
      "stateMutability": "view",
      "type": "function",
      "constant": true
    },
    {
      "inputs": [
        {
          "internalType": "string",
          "name": "didkey",
          "type": "string"
        }
      ],
      "name": "isDoctor",
      "outputs": [
        {
          "internalType": "bool",
          "name": "",
          "type": "bool"
        }
      ],
      "stateMutability": "view",
      "type": "function",
      "constant": true
    },
    {
      "inputs": [
        {
          "internalType": "string",
          "name": "didkey",
          "type": "string"
        }
      ],
      "name": "isPharma",
      "outputs": [
        {
          "internalType": "bool",
          "name": "",
          "type": "bool"
        }
      ],
      "stateMutability": "view",
      "type": "function",
      "constant": true
    },
    {
      "inputs": [
        {
          "internalType": "address",
          "name": "a",
          "type": "address"
        }
      ],
      "name": "isPharma",
      "outputs": [
        {
          "internalType": "bool",
          "name": "",
          "type": "bool"
        }
      ],
      "stateMutability": "view",
      "type": "function",
      "constant": true
    },
    {
      "inputs": [
        {
          "internalType": "string",
          "name": "didkey",
          "type": "string"
        }
      ],
      "name": "addNewDoctor",
      "outputs": [],
      "stateMutability": "nonpayable",
      "type": "function"
    },
    {
      "inputs": [
        {
          "internalType": "string",
          "name": "didkey",
          "type": "string"
        },
        {
          "internalType": "address",
          "name": "a",
          "type": "address"
        }
      ],
      "name": "addNewPharma",
      "outputs": [],
      "stateMutability": "nonpayable",
      "type": "function"
    },
    {
      "inputs": [
        {
          "components": [
            {
              "components": [
                {
                  "internalType": "string",
                  "name": "prId",
                  "type": "string"
                },
                {
                  "internalType": "uint256",
                  "name": "quantity",
                  "type": "uint256"
                },
                {
                  "internalType": "uint256",
                  "name": "maxQuantity",
                  "type": "uint256"
                },
                {
                  "internalType": "uint256",
                  "name": "price",
                  "type": "uint256"
                }
              ],
              "internalType": "struct vc4med.Prescription[]",
              "name": "p",
              "type": "tuple[]"
            },
            {
              "internalType": "string",
              "name": "orderId",
              "type": "string"
            },
            {
              "internalType": "uint256",
              "name": "totalPrice",
              "type": "uint256"
            }
          ],
          "internalType": "struct vc4med.Order",
          "name": "order",
          "type": "tuple"
        },
        {
          "internalType": "bytes",
          "name": "sig",
          "type": "bytes"
        }
      ],
      "name": "payOrder",
      "outputs": [],
      "stateMutability": "payable",
      "type": "function",
      "payable": true
    }
  ],
  "bytecode": "0x60806040523480156200001157600080fd5b5033600660006101000a81548173ffffffffffffffffffffffffffffffffffffffff021916908373ffffffffffffffffffffffffffffffffffffffff160217905550600160036040516200006590620002f9565b908152602001604051809103902060006101000a81548160ff021916908315150217905550600160046040516200009c9062000386565b908152602001604051809103902060006101000a81548160ff02191690831515021790555060016005600073467fdacfa2dc3bad646840f81f686579d6a7335f73ffffffffffffffffffffffffffffffffffffffff1673ffffffffffffffffffffffffffffffffffffffff16815260200190815260200160002060006101000a81548160ff021916908315150217905550620001f460405180608001604052806040518060400160405280600681526020017f7663346d6564000000000000000000000000000000000000000000000000000081525081526020016040518060400160405280600181526020017f31000000000000000000000000000000000000000000000000000000000000008152508152602001610539815260200173cccccccccccccccccccccccccccccccccccccccc73ffffffffffffffffffffffffffffffffffffffff168152506200020060201b60201c565b60008190555062000475565b60007f8b73c3c69bb8fe3d512ecc4cf759cc79239f7b179b0ffacaa9a75d522b39400f826000015180519060200120836020015180519060200120846040015185606001516040516020016200025b95949392919062000418565b604051602081830303815290604052805190602001209050919050565b600081905092915050565b7f6469643a6b65793a7a364d6b6557723850565673686943313464474c55514e7260008201527f4531593241637666656d48485131784b6976735642364a580000000000000000602082015250565b6000620002e160388362000278565b9150620002ee8262000283565b603882019050919050565b60006200030682620002d2565b9150819050919050565b7f6469643a6b65793a7a364d6b746141664c595a46336b6861485a755743686f3160008201527f76724a6b44505878316e6b48745053584653776b366735690000000000000000602082015250565b60006200036e60388362000278565b91506200037b8262000310565b603882019050919050565b600062000393826200035f565b9150819050919050565b6000819050919050565b620003b2816200039d565b82525050565b6000819050919050565b620003cd81620003b8565b82525050565b600073ffffffffffffffffffffffffffffffffffffffff82169050919050565b60006200040082620003d3565b9050919050565b6200041281620003f3565b82525050565b600060a0820190506200042f6000830188620003a7565b6200043e6020830187620003a7565b6200044d6040830186620003a7565b6200045c6060830185620003c2565b6200046b608083018462000407565b9695505050505050565b61190980620004856000396000f3fe6080604052600436106100705760003560e01c806395122c521161004e57806395122c52146100f9578063c6a4161414610136578063d1e4fd0f1461015f578063ff65f4731461019c57610070565b80633880b50e146100755780637dd22a15146100915780638da5cb5b146100ce575b600080fd5b61008f600480360381019061008a9190610f22565b6101c5565b005b34801561009d57600080fd5b506100b860048036038101906100b39190610f9a565b6105ac565b6040516100c59190610ffe565b60405180910390f35b3480156100da57600080fd5b506100e36105e1565b6040516100f0919061105a565b60405180910390f35b34801561010557600080fd5b50610120600480360381019061011b9190610f9a565b610607565b60405161012d9190610ffe565b60405180910390f35b34801561014257600080fd5b5061015d600480360381019061015891906110a1565b61063c565b005b34801561016b57600080fd5b50610186600480360381019061018191906110fd565b61075f565b6040516101939190610ffe565b60405180910390f35b3480156101a857600080fd5b506101c360048036038101906101be9190610f9a565b6107b5565b005b60001515600283602001516040516101dd919061119b565b908152602001604051809103902060009054906101000a900460ff1615151461023b576040517f08c379a00000000000000000000000000000000000000000000000000000000081526004016102329061120f565b60405180910390fd5b60005b8260000151518110156103a957826000015181815181106102625761026161122f565b5b602002602001015160400151836000015182815181106102855761028461122f565b5b6020026020010151602001516001856000015184815181106102aa576102a961122f565b5b6020026020010151600001516040516102c3919061119b565b9081526020016040518091039020546102dc919061128d565b111561031d576040517f08c379a00000000000000000000000000000000000000000000000000000000081526004016103149061130d565b60405180910390fd5b826000015181815181106103345761033361122f565b5b6020026020010151602001516001846000015183815181106103595761035861122f565b5b602002602001015160000151604051610372919061119b565b9081526020016040518091039020600082825461038f919061128d565b9250508190555080806103a19061132d565b91505061023e565b506001600283602001516040516103c0919061119b565b908152602001604051809103902060006101000a81548160ff0219169083151502179055506041815114610429576040517f08c379a0000000000000000000000000000000000000000000000000000000008152600401610420906113c1565b60405180910390fd5b60008060006020840151915060408401519050606084015160001a925060006104548685858561087f565b905061045f8161075f565b61049e576040517f08c379a00000000000000000000000000000000000000000000000000000000081526004016104959061142d565b60405180910390fd5b670de0b6b3a764000086604001516104b6919061144d565b34146104f7576040517f08c379a00000000000000000000000000000000000000000000000000000000081526004016104ee90611501565b60405180910390fd5b60008173ffffffffffffffffffffffffffffffffffffffff163460405161051d90611552565b60006040518083038185875af1925050503d806000811461055a576040519150601f19603f3d011682016040523d82523d6000602084013e61055f565b606091505b50509050806105a3576040517f08c379a000000000000000000000000000000000000000000000000000000000815260040161059a906115b3565b60405180910390fd5b50505050505050565b60006004826040516105be919061119b565b908152602001604051809103902060009054906101000a900460ff169050919050565b600660009054906101000a900473ffffffffffffffffffffffffffffffffffffffff1681565b6000600382604051610619919061119b565b908152602001604051809103902060009054906101000a900460ff169050919050565b600660009054906101000a900473ffffffffffffffffffffffffffffffffffffffff1673ffffffffffffffffffffffffffffffffffffffff163373ffffffffffffffffffffffffffffffffffffffff16146106cc576040517f08c379a00000000000000000000000000000000000000000000000000000000081526004016106c39061161f565b60405180910390fd5b60016004836040516106de919061119b565b908152602001604051809103902060006101000a81548160ff0219169083151502179055506001600560008373ffffffffffffffffffffffffffffffffffffffff1673ffffffffffffffffffffffffffffffffffffffff16815260200190815260200160002060006101000a81548160ff0219169083151502179055505050565b6000600560008373ffffffffffffffffffffffffffffffffffffffff1673ffffffffffffffffffffffffffffffffffffffff16815260200190815260200160002060009054906101000a900460ff169050919050565b600660009054906101000a900473ffffffffffffffffffffffffffffffffffffffff1673ffffffffffffffffffffffffffffffffffffffff163373ffffffffffffffffffffffffffffffffffffffff1614610845576040517f08c379a000000000000000000000000000000000000000000000000000000000815260040161083c9061161f565b60405180910390fd5b6001600382604051610857919061119b565b908152602001604051809103902060006101000a81548160ff02191690831515021790555050565b60008060005461088e87610911565b60405160200161089f9291906116b6565b604051602081830303815290604052805190602001209050600181868686604051600081526020016040526040516108da9493929190611718565b6020604051602081039080840390855afa1580156108fc573d6000803e3d6000fd5b50505060206040510351915050949350505050565b60007f2e67d82ce86a106210c62567108a7d3f744008a292303ecd7b2ae4b3e70956e76109418360000151610982565b8360200151805190602001208460400151604051602001610965949392919061176c565b604051602081830303815290604052805190602001209050919050565b600080825167ffffffffffffffff8111156109a05761099f610afb565b5b6040519080825280602002602001820160405280156109ce5781602001602082028036833780820191505090505b50905060005b8151811015610a3257610a008482815181106109f3576109f261122f565b5b6020026020010151610a62565b828281518110610a1357610a1261122f565b5b6020026020010181815250508080610a2a9061132d565b9150506109d4565b5080604051602001610a449190611869565b60405160208183030381529060405280519060200120915050919050565b60007f8694b051b71887652a1ded9713c40b6a361bd13e65833075c0b919188e28f69f826000015180519060200120836020015184604001518560600151604051602001610ab4959493929190611880565b604051602081830303815290604052805190602001209050919050565b6000604051905090565b600080fd5b600080fd5b600080fd5b6000601f19601f8301169050919050565b7f4e487b7100000000000000000000000000000000000000000000000000000000600052604160045260246000fd5b610b3382610aea565b810181811067ffffffffffffffff82111715610b5257610b51610afb565b5b80604052505050565b6000610b65610ad1565b9050610b718282610b2a565b919050565b600080fd5b600080fd5b600067ffffffffffffffff821115610b9b57610b9a610afb565b5b602082029050602081019050919050565b600080fd5b600080fd5b600067ffffffffffffffff821115610bd157610bd0610afb565b5b610bda82610aea565b9050602081019050919050565b82818337600083830152505050565b6000610c09610c0484610bb6565b610b5b565b905082815260208101848484011115610c2557610c24610bb1565b5b610c30848285610be7565b509392505050565b600082601f830112610c4d57610c4c610b7b565b5b8135610c5d848260208601610bf6565b91505092915050565b6000819050919050565b610c7981610c66565b8114610c8457600080fd5b50565b600081359050610c9681610c70565b92915050565b600060808284031215610cb257610cb1610ae5565b5b610cbc6080610b5b565b9050600082013567ffffffffffffffff811115610cdc57610cdb610b76565b5b610ce884828501610c38565b6000830152506020610cfc84828501610c87565b6020830152506040610d1084828501610c87565b6040830152506060610d2484828501610c87565b60608301525092915050565b6000610d43610d3e84610b80565b610b5b565b90508083825260208201905060208402830185811115610d6657610d65610bac565b5b835b81811015610dad57803567ffffffffffffffff811115610d8b57610d8a610b7b565b5b808601610d988982610c9c565b85526020850194505050602081019050610d68565b5050509392505050565b600082601f830112610dcc57610dcb610b7b565b5b8135610ddc848260208601610d30565b91505092915050565b600060608284031215610dfb57610dfa610ae5565b5b610e056060610b5b565b9050600082013567ffffffffffffffff811115610e2557610e24610b76565b5b610e3184828501610db7565b600083015250602082013567ffffffffffffffff811115610e5557610e54610b76565b5b610e6184828501610c38565b6020830152506040610e7584828501610c87565b60408301525092915050565b600067ffffffffffffffff821115610e9c57610e9b610afb565b5b610ea582610aea565b9050602081019050919050565b6000610ec5610ec084610e81565b610b5b565b905082815260208101848484011115610ee157610ee0610bb1565b5b610eec848285610be7565b509392505050565b600082601f830112610f0957610f08610b7b565b5b8135610f19848260208601610eb2565b91505092915050565b60008060408385031215610f3957610f38610adb565b5b600083013567ffffffffffffffff811115610f5757610f56610ae0565b5b610f6385828601610de5565b925050602083013567ffffffffffffffff811115610f8457610f83610ae0565b5b610f9085828601610ef4565b9150509250929050565b600060208284031215610fb057610faf610adb565b5b600082013567ffffffffffffffff811115610fce57610fcd610ae0565b5b610fda84828501610c38565b91505092915050565b60008115159050919050565b610ff881610fe3565b82525050565b60006020820190506110136000830184610fef565b92915050565b600073ffffffffffffffffffffffffffffffffffffffff82169050919050565b600061104482611019565b9050919050565b61105481611039565b82525050565b600060208201905061106f600083018461104b565b92915050565b61107e81611039565b811461108957600080fd5b50565b60008135905061109b81611075565b92915050565b600080604083850312156110b8576110b7610adb565b5b600083013567ffffffffffffffff8111156110d6576110d5610ae0565b5b6110e285828601610c38565b92505060206110f38582860161108c565b9150509250929050565b60006020828403121561111357611112610adb565b5b60006111218482850161108c565b91505092915050565b600081519050919050565b600081905092915050565b60005b8381101561115e578082015181840152602081019050611143565b60008484015250505050565b60006111758261112a565b61117f8185611135565b935061118f818560208601611140565b80840191505092915050565b60006111a7828461116a565b915081905092915050565b600082825260208201905092915050565b7f4f7264657220686173206265656e20616c72656164792064656c697665726564600082015250565b60006111f96020836111b2565b9150611204826111c3565b602082019050919050565b60006020820190508181036000830152611228816111ec565b9050919050565b7f4e487b7100000000000000000000000000000000000000000000000000000000600052603260045260246000fd5b7f4e487b7100000000000000000000000000000000000000000000000000000000600052601160045260246000fd5b600061129882610c66565b91506112a383610c66565b92508282019050808211156112bb576112ba61125e565b5b92915050565b7f6d61785175616e74697479206578636565646564000000000000000000000000600082015250565b60006112f76014836111b2565b9150611302826112c1565b602082019050919050565b60006020820190508181036000830152611326816112ea565b9050919050565b600061133882610c66565b91507fffffffffffffffffffffffffffffffffffffffffffffffffffffffffffffffff820361136a5761136961125e565b5b600182019050919050565b7f696e76616c6964207369676e6174757265206c656e6774680000000000000000600082015250565b60006113ab6018836111b2565b91506113b682611375565b602082019050919050565b600060208201905081810360008301526113da8161139e565b9050919050565b7f5369676e6572206973206e6f7420612076616c696420506861726d6163790000600082015250565b6000611417601e836111b2565b9150611422826113e1565b602082019050919050565b600060208201905081810360008301526114468161140a565b9050919050565b600061145882610c66565b915061146383610c66565b925082820261147181610c66565b915082820484148315176114885761148761125e565b5b5092915050565b7f416d6f756e74206f6620455448206973206e6f7420656e6f75676820746f207060008201527f617920746865206f726465720000000000000000000000000000000000000000602082015250565b60006114eb602c836111b2565b91506114f68261148f565b604082019050919050565b6000602082019050818103600083015261151a816114de565b9050919050565b600081905092915050565b50565b600061153c600083611521565b91506115478261152c565b600082019050919050565b600061155d8261152f565b9150819050919050565b7f4661696c656420746f2070617900000000000000000000000000000000000000600082015250565b600061159d600d836111b2565b91506115a882611567565b602082019050919050565b600060208201905081810360008301526115cc81611590565b9050919050565b7f4e6f74206f776e65720000000000000000000000000000000000000000000000600082015250565b60006116096009836111b2565b9150611614826115d3565b602082019050919050565b60006020820190508181036000830152611638816115fc565b9050919050565b7f1901000000000000000000000000000000000000000000000000000000000000600082015250565b6000611675600283611135565b91506116808261163f565b600282019050919050565b6000819050919050565b6000819050919050565b6116b06116ab8261168b565b611695565b82525050565b60006116c182611668565b91506116cd828561169f565b6020820191506116dd828461169f565b6020820191508190509392505050565b6116f68161168b565b82525050565b600060ff82169050919050565b611712816116fc565b82525050565b600060808201905061172d60008301876116ed565b61173a6020830186611709565b61174760408301856116ed565b61175460608301846116ed565b95945050505050565b61176681610c66565b82525050565b600060808201905061178160008301876116ed565b61178e60208301866116ed565b61179b60408301856116ed565b6117a8606083018461175d565b95945050505050565b600081519050919050565b600081905092915050565b6000819050602082019050919050565b6117e08161168b565b82525050565b60006117f283836117d7565b60208301905092915050565b6000602082019050919050565b6000611816826117b1565b61182081856117bc565b935061182b836117c7565b8060005b8381101561185c57815161184388826117e6565b975061184e836117fe565b92505060018101905061182f565b5085935050505092915050565b6000611875828461180b565b915081905092915050565b600060a08201905061189560008301886116ed565b6118a260208301876116ed565b6118af604083018661175d565b6118bc606083018561175d565b6118c9608083018461175d565b969550505050505056fea2646970667358221220d30a75bc190d565b80edb5f593cea511fb96e456991cb3b7961b769d01606c2364736f6c63430008130033",
  "immutableReferences": {},
  "source": "// SPDX-License-Identifier: MIT\r\npragma solidity 0.8.19;\r\n\r\ncontract vc4med {\r\n\r\n  /* EIP 712 */\r\n  struct EIP712Domain {\r\n    string  name;\r\n    string  version;\r\n    uint256 chainId;\r\n    address verifyingContract;\r\n  }\r\n\r\n  struct Prescription {\r\n    string prId;\r\n    uint256 quantity;\r\n    uint256 maxQuantity;\r\n    uint256 price;\r\n  }\r\n\r\n  struct Order {\r\n    Prescription[] p;\r\n    string orderId;\r\n    uint256 totalPrice;\r\n  }\r\n\r\n  bytes32 constant EIP712DOMAIN_TYPEHASH = keccak256(\r\n    \"EIP712Domain(string name,string version,uint256 chainId,address verifyingContract)\"\r\n  );\r\n\r\n  bytes32 constant PRESCRIPTION_TYPEHASH = keccak256(\r\n    \"Prescription(string prId,uint256 quantity,uint256 maxQuantity,uint256 price)\"\r\n  );\r\n\r\n  bytes32 constant ORDER_TYPEHASH = keccak256(\r\n    \"Order(Prescription[] p,string orderId,uint256 totalPrice)Prescription(string prId,uint256 quantity,uint256 maxQuantity,uint256 price)\"\r\n  );\r\n\r\n  bytes32 DOMAIN_SEPARATOR;\r\n\r\n  /* GLOBAL VARS */\r\n  mapping(string => uint) alreadyRedeemedQuantity;\r\n  mapping(string => bool) orders;\r\n  mapping(string => bool) doctorsKey;\r\n  mapping(string => bool) pharmasKey;\r\n  mapping(address=> bool) pharmasAddr;\r\n\r\n  address public owner;\r\n\r\n  constructor(){\r\n    // Set the transaction sender as the owner of the contract.\r\n    owner = msg.sender;\r\n\r\n    // Values for demo\r\n    doctorsKey['did:key:z6MkeWr8PVVshiC14dGLUQNrE1Y2AcvfemHHQ1xKivsVB6JX']= true;\r\n    pharmasKey['did:key:z6MktaAfLYZF3khaHZuWCho1vrJkDPXx1nkHtPSXFSwk6g5i']=true;\r\n    pharmasAddr[0x467FDaCfA2DC3bad646840F81f686579d6a7335F]=true;\r\n\r\n    //EIP 712\r\n    DOMAIN_SEPARATOR = hash(EIP712Domain({\r\n      name: \"vc4med\",\r\n      version: '1',\r\n      chainId: 1337,\r\n      // verifyingContract: this\r\n      verifyingContract: 0xCcCCccccCCCCcCCCCCCcCcCccCcCCCcCcccccccC\r\n    }));\r\n  }\r\n\r\n  // Modifier to check that the caller is the owner of the contract.\r\n  modifier onlyOwner() {\r\n    require(msg.sender == owner, \"Not owner\");\r\n    // execute the rest of the code.\r\n    _;\r\n  }\r\n\r\n  /* CRUD operations */\r\n  function isDoctor(string memory didkey) public view returns (bool) {\r\n    return doctorsKey[didkey];\r\n  }\r\n\r\n  function isPharma(string memory didkey) public view returns (bool) {\r\n    return pharmasKey[didkey];\r\n  }\r\n\r\n  function isPharma(address a) public view returns (bool) {\r\n    return pharmasAddr[a];\r\n  }\r\n\r\n  function addNewDoctor(string memory didkey) public onlyOwner(){\r\n    doctorsKey[didkey] = true;\r\n  }\r\n\r\n  function addNewPharma(string memory didkey, address a) public onlyOwner(){\r\n    pharmasKey[didkey] = true;\r\n    pharmasAddr[a] = true;\r\n  }\r\n\r\n  /* Hash functions for EIP 712 */\r\n  function hash(EIP712Domain memory eip712Domain) internal pure returns (bytes32) {\r\n    return keccak256(abi.encode(\r\n      EIP712DOMAIN_TYPEHASH,\r\n      keccak256(bytes(eip712Domain.name)),\r\n      keccak256(bytes(eip712Domain.version)),\r\n      eip712Domain.chainId,\r\n      eip712Domain.verifyingContract\r\n    ));\r\n  }\r\n\r\n  function hash(Prescription memory prescription) internal pure returns (bytes32) {\r\n    return keccak256(abi.encode(\r\n      PRESCRIPTION_TYPEHASH,\r\n      keccak256(bytes(prescription.prId)),\r\n      prescription.quantity,\r\n      prescription.maxQuantity,\r\n      prescription.price\r\n    ));\r\n  }\r\n\r\n  function hash(Prescription[] memory ps) internal pure returns (bytes32) {\r\n    bytes32[] memory keccakItems = new bytes32[](ps.length);\r\n      for(uint i=0; i<keccakItems.length;i++){\r\n        keccakItems[i] = hash(ps[i]);\r\n      }\r\n    return keccak256(abi.encodePacked(keccakItems));\r\n  }\r\n\r\n  function hash(Order memory order) internal pure returns (bytes32) {\r\n    return keccak256(abi.encode(\r\n      ORDER_TYPEHASH,\r\n      hash(order.p),\r\n      keccak256(bytes(order.orderId)),\r\n      order.totalPrice\r\n    ));\r\n  }\r\n\r\n  function verify(Order memory order, uint8 v, bytes32 r, bytes32 s) internal view returns (address) {\r\n    // Note: we need to use `encodePacked` here instead of `encode`.\r\n    bytes32 digest = keccak256(abi.encodePacked(\r\n      \"\\x19\\x01\",\r\n      DOMAIN_SEPARATOR,\r\n      hash(order)\r\n    ));\r\n    return ecrecover(digest, v, r, s);\r\n  }\r\n    \r\n  // Order: JSON file with all the info to complete the payment\r\n  // Sig : hash signed by the pharmacy to check the order has not been tampered\r\n  function payOrder(Order memory order, bytes memory sig) public payable {\r\n    //check order validity to avoid double spending\r\n    require(orders[order.orderId]==false, 'Order has been already delivered');\r\n    for(uint i=0; i<order.p.length; i++){\r\n      require(alreadyRedeemedQuantity[order.p[i].prId] + order.p[i].quantity <= order.p[i].maxQuantity, 'maxQuantity exceeded');\r\n      alreadyRedeemedQuantity[order.p[i].prId] += order.p[i].quantity;\r\n    }\r\n    orders[order.orderId] = true;\r\n\r\n    // signature check\r\n    require(sig.length == 65, \"invalid signature length\");\r\n    uint8 v; bytes32 r; bytes32 s;\r\n    assembly {\r\n      /*\r\n      First 32 bytes stores the length of the signature\r\n      add(sig, 32) = pointer of sig + 32\r\n      effectively, skips first 32 bytes of signature\r\n      mload(p) loads next 32 bytes starting at the memory address p into memory\r\n      */\r\n      // first 32 bytes, after the length prefix\r\n      r := mload(add(sig, 32))\r\n      // second 32 bytes\r\n      s := mload(add(sig, 64))\r\n      // final byte (first byte of the next 32 bytes)\r\n      v := byte(0, mload(add(sig, 96)))\r\n    }\r\n\r\n    // pharma check      \r\n    address payable pharma = payable(verify(order, v, r, s));\r\n    require(isPharma(pharma), 'Signer is not a valid Pharmacy');\r\n    \r\n    // payment\r\n    require(msg.value == order.totalPrice * 1e18, 'Amount of ETH is not enough to pay the order');\r\n    (bool sent, ) = pharma.call{value: msg.value}(\"\");\r\n    require(sent, \"Failed to pay\");\r\n  }\r\n}\r\n",
  "sourcePath": "C:\\Users\\Stroppa\\vc-4-med\\polygon\\contracts\\ethereum\\vc4med.sol",
  "compiler": {
    "name": "solc",
    "version": "0.8.19+commit.7dd6d404.Emscripten.clang"
  },
  "schemaVersion": "3.4.9",
  "updatedAt": "2023-04-07T08:26:43.822Z",
  "networkType": "ethereum",
  "devdoc": {
    "kind": "dev",
    "methods": {},
    "version": 1
  },
  "userdoc": {
    "kind": "user",
    "methods": {},
    "version": 1
  }
}